S012000048656C6C6F576F726C642E7372656316
S11300000C9436000C945E000C945E000C945E001C
S11300100C945E000C945E000C945E000C945E00E4
S11300200C945E000C945E000C945E000C945E00D4
S11300300C945E000C945E000C945E000C945E00C4
S11300400C945E000C945E000C945E000C945E00B4
S11300500C945E000C945E000C945E000C945E00A4
S11300600C945E000C945E006B00A20011241FBE71
S1130070CFEFD8E0DEBFCDBF11E0A0E0B1E0E6E015
S1130080F2E002C005900D92AE30B107D9F721E03D
S1130090AEE0B1E001C01D92A432B207E1F710E076
S11300A0C6E3D0E004C02197FE010E94FB00C433E4
S11300B0D107C9F70E947E000C9401010C94000042
S11300C0E0E8F0E08081816A8083E1E8F0E080810B
S11300D08D608083089565B122E030E041E050E016
S11300E085E191E00E94D00065B122E030E041E07A
S11300F050E08EE091E00E94D0000895259A87E6B2
S113010090E00E94D90081E291E00E94B50080E075
S113011091E00E94EC002FEF83ED90E321508040AA
S11301209040E1F700C0000081E291E00E94C2002B
S11301302FEF83ED90E3215080409040E1F700C021
S11301400000E1CF65B145E050E081E291E00E941A
S1130150B00045B168B18CE191E00E94600008955F
S1130160FC016283518340830895FC0121E030E067
S1130170008002C0220F331F0A94E2F78281282BE9
S113018022830895FC0121E030E0008002C0220FA8
S1130190331F0A94E2F7209582812823228308954D
S11301A0FC0116821582838186608383697F648360
S11301B008959093C5008093C40088E18093C100A2
S11301C08EE08093C2000895E0ECF0E0908195FF0A
S11301D0FDCF8093C6000895CF93DF93EC0188810F
S11301E0882331F021960E94E40089918111FBCF8C
S11301F0DF91CF910895EE0FFF1F0590F491E02D4C
S10902000994F894FFCFFD
S111020648454C4C4F20574F524C440A0000C0
S9030000FC
